{
    "_format": "hh-sol-artifact-1",
    "contractName": "BigNumber",
    "sourceName": "contracts/BigNumber.sol",
    "abi": [
        {
            "inputs": [],
            "stateMutability": "nonpayable",
            "type": "constructor"
        },
        {
            "inputs": [
                {
                    "internalType": "uint8",
                    "name": "got",
                    "type": "uint8"
                },
                {
                    "internalType": "uint8",
                    "name": "expected",
                    "type": "uint8"
                }
            ],
            "name": "InvalidEncryptedInput",
            "type": "error"
        },
        {
            "inputs": [
                {
                    "internalType": "int32",
                    "name": "value",
                    "type": "int32"
                }
            ],
            "name": "SecurityZoneOutOfBounds",
            "type": "error"
        },
        {
            "inputs": [],
            "name": "difference",
            "outputs": [
                {
                    "internalType": "euint32",
                    "name": "",
                    "type": "uint256"
                }
            ],
            "stateMutability": "view",
            "type": "function"
        },
        {
            "inputs": [],
            "name": "getEncryptedResult",
            "outputs": [
                {
                    "internalType": "euint32",
                    "name": "",
                    "type": "uint256"
                },
                {
                    "internalType": "euint32",
                    "name": "",
                    "type": "uint256"
                }
            ],
            "stateMutability": "view",
            "type": "function"
        },
        {
            "inputs": [],
            "name": "number1",
            "outputs": [
                {
                    "internalType": "euint32",
                    "name": "",
                    "type": "uint256"
                }
            ],
            "stateMutability": "view",
            "type": "function"
        },
        {
            "inputs": [],
            "name": "number2",
            "outputs": [
                {
                    "internalType": "euint32",
                    "name": "",
                    "type": "uint256"
                }
            ],
            "stateMutability": "view",
            "type": "function"
        },
        {
            "inputs": [],
            "name": "owner",
            "outputs": [
                {
                    "internalType": "address",
                    "name": "",
                    "type": "address"
                }
            ],
            "stateMutability": "view",
            "type": "function"
        },
        {
            "inputs": [],
            "name": "player1",
            "outputs": [
                {
                    "internalType": "address",
                    "name": "",
                    "type": "address"
                }
            ],
            "stateMutability": "view",
            "type": "function"
        },
        {
            "inputs": [],
            "name": "player2",
            "outputs": [
                {
                    "internalType": "address",
                    "name": "",
                    "type": "address"
                }
            ],
            "stateMutability": "view",
            "type": "function"
        },
        {
            "inputs": [
                {
                    "components": [
                        {
                            "internalType": "uint256",
                            "name": "ctHash",
                            "type": "uint256"
                        },
                        {
                            "internalType": "uint8",
                            "name": "securityZone",
                            "type": "uint8"
                        },
                        {
                            "internalType": "uint8",
                            "name": "utype",
                            "type": "uint8"
                        },
                        {
                            "internalType": "bytes",
                            "name": "signature",
                            "type": "bytes"
                        }
                    ],
                    "internalType": "struct InEuint32",
                    "name": "encryptedInput",
                    "type": "tuple"
                }
            ],
            "name": "submitNumber",
            "outputs": [],
            "stateMutability": "nonpayable",
            "type": "function"
        },
        {
            "inputs": [],
            "name": "winnerEncrypted",
            "outputs": [
                {
                    "internalType": "euint32",
                    "name": "",
                    "type": "uint256"
                }
            ],
            "stateMutability": "view",
            "type": "function"
        }
    ],
    "bytecode": "0x6080604052348015600e575f80fd5b50335f806101000a81548173ffffffffffffffffffffffffffffffffffffffff021916908373ffffffffffffffffffffffffffffffffffffffff16021790555061187a8061005b5f395ff3fe608060405234801561000f575f80fd5b5060043610610091575f3560e01c8063c223a39e11610064578063c223a39e1461010b578063cead226214610129578063d30895e414610147578063dd56653c14610165578063f8b4f1191461018357610091565b806317730aba1461009557806359a5f12d146100b15780638da5cb5b146100cf57806390c52443146100ed575b5f80fd5b6100af60048036038101906100aa9190611010565b6101a2565b005b6100b9610466565b6040516100c69190611096565b60405180910390f35b6100d761048b565b6040516100e49190611096565b60405180910390f35b6100f56104ae565b60405161010291906110f1565b60405180910390f35b6101136104b4565b60405161012091906110f1565b60405180910390f35b6101316104ba565b60405161013e91906110f1565b60405180910390f35b61014f6104c0565b60405161015c9190611096565b60405180910390f35b61016d6104e5565b60405161017a91906110f1565b60405180910390f35b61018b6104eb565b60405161019992919061110a565b60405180910390f35b5f73ffffffffffffffffffffffffffffffffffffffff1660015f9054906101000a900473ffffffffffffffffffffffffffffffffffffffff1673ffffffffffffffffffffffffffffffffffffffff16148061024957505f73ffffffffffffffffffffffffffffffffffffffff1660025f9054906101000a900473ffffffffffffffffffffffffffffffffffffffff1673ffffffffffffffffffffffffffffffffffffffff16145b610288576040517f08c379a000000000000000000000000000000000000000000000000000000000815260040161027f9061118b565b60405180910390fd5b60015f9054906101000a900473ffffffffffffffffffffffffffffffffffffffff1673ffffffffffffffffffffffffffffffffffffffff163373ffffffffffffffffffffffffffffffffffffffff1614158015610332575060025f9054906101000a900473ffffffffffffffffffffffffffffffffffffffff1673ffffffffffffffffffffffffffffffffffffffff163373ffffffffffffffffffffffffffffffffffffffff1614155b610371576040517f08c379a0000000000000000000000000000000000000000000000000000000008152600401610368906111f3565b60405180910390fd5b5f73ffffffffffffffffffffffffffffffffffffffff1660015f9054906101000a900473ffffffffffffffffffffffffffffffffffffffff1673ffffffffffffffffffffffffffffffffffffffff1603610412573373ffffffffffffffffffffffffffffffffffffffff1660015f9054906101000a905050506103fc816103f790611446565b6105e1565b60038190555061040d600354610654565b610463565b3373ffffffffffffffffffffffffffffffffffffffff1660025f9054906101000a905050506104498161044490611446565b6105e1565b60048190555061045a600454610654565b6104626106d3565b5b50565b60025f9054906101000a900473ffffffffffffffffffffffffffffffffffffffff1681565b5f8054906101000a900473ffffffffffffffffffffffffffffffffffffffff1681565b60045481565b60035481565b60065481565b60015f9054906101000a900473ffffffffffffffffffffffffffffffffffffffff1681565b60055481565b5f8060015f9054906101000a900473ffffffffffffffffffffffffffffffffffffffff1673ffffffffffffffffffffffffffffffffffffffff163373ffffffffffffffffffffffffffffffffffffffff161480610594575060025f9054906101000a900473ffffffffffffffffffffffffffffffffffffffff1673ffffffffffffffffffffffffffffffffffffffff163373ffffffffffffffffffffffffffffffffffffffff16145b6105d3576040517f08c379a00000000000000000000000000000000000000000000000000000000081526004016105ca906114a2565b60405180910390fd5b600654600554915091509091565b5f80600490508060ff16836040015160ff161461063b578260400151816040517f67cf30710000000000000000000000000000000000000000000000000000000081526004016106329291906114cf565b60405180910390fd5b61064c6106478461076e565b6107b0565b915050919050565b73ea30c4b8b44078bbf8a6ef5b9f1ec1626c7848d973ffffffffffffffffffffffffffffffffffffffff166365d0509c82306040518363ffffffff1660e01b81526004016106a3929190611505565b5f604051808303815f87803b1580156106ba575f80fd5b505af11580156106cc573d5f803e3d5ffd5b5050505050565b5f6106e2600354600454610847565b90505f6106f3600354600454610890565b90506107196107066003546004546108d9565b610714600354600454610922565b61096b565b60058190555061074e8261072d60016109b4565b6107498461073b60026109b4565b6107445f6109b4565b6109c6565b6109c6565b60068190555061075f600554610a28565b61076a600654610a28565b5050565b610776610fb2565b6040518060800160405280835f01518152602001836020015160ff168152602001600460ff16815260200183606001518152509050919050565b5f73ea30c4b8b44078bbf8a6ef5b9f1ec1626c7848d973ffffffffffffffffffffffffffffffffffffffff166327f9c76283336040518363ffffffff1660e01b815260040161080092919061160a565b6020604051808303815f875af115801561081c573d5f803e3d5ffd5b505050506040513d601f19601f82011682018060405250810190610840919061164c565b9050919050565b5f61085183610aa7565b6108615761085e5f6109b4565b92505b61086a82610aa7565b61087a576108775f6109b4565b91505b610888600484846015610ab8565b905092915050565b5f61089a83610aa7565b6108aa576108a75f6109b4565b92505b6108b382610aa7565b6108c3576108c05f6109b4565b91505b6108d1600484846014610ab8565b905092915050565b5f6108e383610aa7565b6108f3576108f05f6109b4565b92505b6108fc82610aa7565b61090c576109095f6109b4565b91505b61091a600484846017610ab8565b905092915050565b5f61092c83610aa7565b61093c576109395f6109b4565b92505b61094582610aa7565b610955576109525f6109b4565b91505b610963600484846016610ab8565b905092915050565b5f61097583610aa7565b610985576109825f6109b4565b92505b61098e82610aa7565b61099e5761099b5f6109b4565b91505b6109ac600484846007610ab8565b905092915050565b5f6109bf825f610ba7565b9050919050565b5f6109d084610bc1565b6109e0576109dd5f610bd2565b93505b6109e983610aa7565b6109f9576109f65f6109b4565b92505b610a0282610aa7565b610a1257610a0f5f6109b4565b91505b610a1f6004858585610be4565b90509392505050565b73ea30c4b8b44078bbf8a6ef5b9f1ec1626c7848d973ffffffffffffffffffffffffffffffffffffffff166365d0509c82336040518363ffffffff1660e01b8152600401610a77929190611505565b5f604051808303815f87803b158015610a8e575f80fd5b505af1158015610aa0573d5f803e3d5ffd5b5050505050565b5f610ab182610cd5565b9050919050565b5f73ea30c4b8b44078bbf8a6ef5b9f1ec1626c7848d973ffffffffffffffffffffffffffffffffffffffff16631888debd8684610af58888610ce1565b5f67ffffffffffffffff811115610b0f57610b0e611225565b5b604051908082528060200260200182016040528015610b3d5781602001602082028036833780820191505090505b506040518563ffffffff1660e01b8152600401610b5d9493929190611792565b6020604051808303815f875af1158015610b79573d5f803e3d5ffd5b505050506040513d601f19601f82011682018060405250810190610b9d919061164c565b9050949350505050565b5f80610bb584600485610d7b565b90508091505092915050565b5f610bcb82610cd5565b9050919050565b5f610bdd825f610e76565b9050919050565b5f73ea30c4b8b44078bbf8a6ef5b9f1ec1626c7848d973ffffffffffffffffffffffffffffffffffffffff16631888debd866004610c23888888610e9f565b5f67ffffffffffffffff811115610c3d57610c3c611225565b5b604051908082528060200260200182016040528015610c6b5781602001602082028036833780820191505090505b506040518563ffffffff1660e01b8152600401610c8b9493929190611792565b6020604051808303815f875af1158015610ca7573d5f803e3d5ffd5b505050506040513d601f19601f82011682018060405250810190610ccb919061164c565b9050949350505050565b5f808214159050919050565b60605f600267ffffffffffffffff811115610cff57610cfe611225565b5b604051908082528060200260200182016040528015610d2d5781602001602082028036833780820191505090505b50905083815f81518110610d4457610d436117e3565b5b6020026020010181815250508281600181518110610d6557610d646117e3565b5b6020026020010181815250508091505092915050565b5f73ea30c4b8b44078bbf8a6ef5b9f1ec1626c7848d973ffffffffffffffffffffffffffffffffffffffff16631888debd84601a5f67ffffffffffffffff811115610dc957610dc8611225565b5b604051908082528060200260200182016040528015610df75781602001602082028036833780820191505090505b50610e0e898960ff16610e098a610f5b565b610e9f565b6040518563ffffffff1660e01b8152600401610e2d9493929190611792565b6020604051808303815f875af1158015610e49573d5f803e3d5ffd5b505050506040513d601f19601f82011682018060405250810190610e6d919061164c565b90509392505050565b5f805f90508315610e8657600190505b5f610e92825f86610d7b565b9050809250505092915050565b60605f600367ffffffffffffffff811115610ebd57610ebc611225565b5b604051908082528060200260200182016040528015610eeb5781602001602082028036833780820191505090505b50905084815f81518110610f0257610f016117e3565b5b6020026020010181815250508381600181518110610f2357610f226117e3565b5b6020026020010181815250508281600281518110610f4457610f436117e3565b5b602002602001018181525050809150509392505050565b5f808260030b1215610fa457816040517f8f568bf8000000000000000000000000000000000000000000000000000000008152600401610f9b919061182b565b60405180910390fd5b8163ffffffff169050919050565b60405180608001604052805f81526020015f60ff1681526020015f60ff168152602001606081525090565b5f604051905090565b5f80fd5b5f80fd5b5f80fd5b5f6080828403121561100757611006610fee565b5b81905092915050565b5f6020828403121561102557611024610fe6565b5b5f82013567ffffffffffffffff81111561104257611041610fea565b5b61104e84828501610ff2565b91505092915050565b5f73ffffffffffffffffffffffffffffffffffffffff82169050919050565b5f61108082611057565b9050919050565b61109081611076565b82525050565b5f6020820190506110a95f830184611087565b92915050565b5f819050919050565b5f819050919050565b5f6110db6110d66110d1846110af565b6110b8565b6110af565b9050919050565b6110eb816110c1565b82525050565b5f6020820190506111045f8301846110e2565b92915050565b5f60408201905061111d5f8301856110e2565b61112a60208301846110e2565b9392505050565b5f82825260208201905092915050565b7f47616d6520616c726561647920737461727465640000000000000000000000005f82015250565b5f611175601483611131565b915061118082611141565b602082019050919050565b5f6020820190508181035f8301526111a281611169565b9050919050565b7f416c7265616479207375626d69747465640000000000000000000000000000005f82015250565b5f6111dd601183611131565b91506111e8826111a9565b602082019050919050565b5f6020820190508181035f83015261120a816111d1565b9050919050565b5f80fd5b5f601f19601f8301169050919050565b7f4e487b71000000000000000000000000000000000000000000000000000000005f52604160045260245ffd5b61125b82611215565b810181811067ffffffffffffffff8211171561127a57611279611225565b5b80604052505050565b5f61128c610fdd565b90506112988282611252565b919050565b5f80fd5b6112aa816110af565b81146112b4575f80fd5b50565b5f813590506112c5816112a1565b92915050565b5f60ff82169050919050565b6112e0816112cb565b81146112ea575f80fd5b50565b5f813590506112fb816112d7565b92915050565b5f80fd5b5f80fd5b5f67ffffffffffffffff82111561132357611322611225565b5b61132c82611215565b9050602081019050919050565b828183375f83830152505050565b5f61135961135484611309565b611283565b90508281526020810184848401111561137557611374611305565b5b611380848285611339565b509392505050565b5f82601f83011261139c5761139b611301565b5b81356113ac848260208601611347565b91505092915050565b5f608082840312156113ca576113c9611211565b5b6113d46080611283565b90505f6113e3848285016112b7565b5f8301525060206113f6848285016112ed565b602083015250604061140a848285016112ed565b604083015250606082013567ffffffffffffffff81111561142e5761142d61129d565b5b61143a84828501611388565b60608301525092915050565b5f61145136836113b5565b9050919050565b7f4e6f74206120706c6179657200000000000000000000000000000000000000005f82015250565b5f61148c600c83611131565b915061149782611458565b602082019050919050565b5f6020820190508181035f8301526114b981611480565b9050919050565b6114c9816112cb565b82525050565b5f6040820190506114e25f8301856114c0565b6114ef60208301846114c0565b9392505050565b6114ff816110af565b82525050565b5f6040820190506115185f8301856114f6565b6115256020830184611087565b9392505050565b611535816110af565b82525050565b611544816112cb565b82525050565b5f81519050919050565b5f82825260208201905092915050565b8281835e5f83830152505050565b5f61157c8261154a565b6115868185611554565b9350611596818560208601611564565b61159f81611215565b840191505092915050565b5f608083015f8301516115bf5f86018261152c565b5060208301516115d2602086018261153b565b5060408301516115e5604086018261153b565b50606083015184820360608601526115fd8282611572565b9150508091505092915050565b5f6040820190508181035f83015261162281856115aa565b90506116316020830184611087565b9392505050565b5f81519050611646816112a1565b92915050565b5f6020828403121561166157611660610fe6565b5b5f61166e84828501611638565b91505092915050565b7f4e487b71000000000000000000000000000000000000000000000000000000005f52602160045260245ffd5b602081106116b5576116b4611677565b5b50565b5f8190506116c5826116a4565b919050565b5f6116d4826116b8565b9050919050565b6116e4816116ca565b82525050565b5f81519050919050565b5f82825260208201905092915050565b5f819050602082019050919050565b5f61171e838361152c565b60208301905092915050565b5f602082019050919050565b5f611740826116ea565b61174a81856116f4565b935061175583611704565b805f5b8381101561178557815161176c8882611713565b97506117778361172a565b925050600181019050611758565b5085935050505092915050565b5f6080820190506117a55f8301876114c0565b6117b260208301866116db565b81810360408301526117c48185611736565b905081810360608301526117d88184611736565b905095945050505050565b7f4e487b71000000000000000000000000000000000000000000000000000000005f52603260045260245ffd5b5f8160030b9050919050565b61182581611810565b82525050565b5f60208201905061183e5f83018461181c565b9291505056fea26469706673582212206674227aeac94c27f236391fbcc4b26cb1f40cccdeb70b0569e13cf7efc4800964736f6c63430008190033",
    "linkReferences": {},
    "deployedLinkReferences": {}
}